{
  "contractName": "Storage",
  "abi": [
    {
      "constant": false,
      "inputs": [
        {
          "name": "_param",
          "type": "uint256"
        }
      ],
      "name": "setStorageParam",
      "outputs": [
        {
          "name": "",
          "type": "bool"
        }
      ],
      "payable": false,
      "stateMutability": "nonpayable",
      "type": "function"
    },
    {
      "constant": true,
      "inputs": [],
      "name": "getStorageParam",
      "outputs": [
        {
          "name": "",
          "type": "uint256"
        }
      ],
      "payable": false,
      "stateMutability": "view",
      "type": "function"
    }
  ],
  "bytecode": "0x608060405234801561001057600080fd5b50610190806100206000396000f30060806040526004361061004c576000357c0100000000000000000000000000000000000000000000000000000000900463ffffffff1680639fe9586514610051578063e2762ef814610096575b600080fd5b34801561005d57600080fd5b5061007c600480360381019080803590602001909291905050506100c1565b604051808215151515815260200191505060405180910390f35b3480156100a257600080fd5b506100ab61015b565b6040518082815260200191505060405180910390f35b60008162989680811080156100d65750600081115b151561014a576040517f08c379a000000000000000000000000000000000000000000000000000000000815260040180806020018281038252601d8152602001807f4f6e6c79206c65737320313030303030303020616e64206d6f7265203000000081525060200191505060405180910390fd5b826000819055506001915050919050565b600080549050905600a165627a7a72305820f608c96165ca415fdfedf17e515f9cf002f44c0877ec545fb2d0efbb88f3d7ad0029",
  "source": "pragma solidity ^0.4.24;\n\ncontract Storage {\n    uint storageParam;\n    \n    modifier restrict(uint _param) {\n        require(\n            (_param < 10**7) && (_param > 0),\n            \"Only less 10000000 and more 0\"\n            );\n            _;\n    }\n    \n    function setStorageParam(uint _param) public restrict(_param) returns(bool) {\n        storageParam = _param;\n        return true;\n    }\n    \n    function getStorageParam() public view returns(uint) {\n        return storageParam;\n    }\n}\n",
  "sourcePath": "/home/kendari/jobs/Slava/param/contracts/Storage.sol",
  "compiler": {
    "name": "solc",
    "version": "0.4.24+commit.e67f0147.Emscripten.clang"
  },
  "schemaVersion": "2.0.1",
  "updatedAt": "2018-08-14T22:52:12.913Z"
}