{
  "contractName": "TokenMining",
  "abi": [
    {
      "inputs": [],
      "payable": false,
      "stateMutability": "nonpayable",
      "type": "constructor"
    },
    {
      "anonymous": false,
      "inputs": [
        {
          "indexed": false,
          "name": "_hash",
          "type": "bytes32"
        },
        {
          "indexed": false,
          "name": "_str",
          "type": "string"
        },
        {
          "indexed": false,
          "name": "_sender",
          "type": "address"
        },
        {
          "indexed": false,
          "name": "_nonce",
          "type": "string"
        },
        {
          "indexed": false,
          "name": "_idBlock",
          "type": "uint256"
        }
      ],
      "name": "newHash",
      "type": "event"
    },
    {
      "constant": false,
      "inputs": [
        {
          "name": "nonce",
          "type": "string"
        },
        {
          "name": "_newHash",
          "type": "bytes32"
        }
      ],
      "name": "proofOfWork",
      "outputs": [
        {
          "name": "",
          "type": "bytes32"
        },
        {
          "name": "",
          "type": "string"
        },
        {
          "name": "",
          "type": "string"
        },
        {
          "name": "",
          "type": "uint256"
        }
      ],
      "payable": false,
      "stateMutability": "nonpayable",
      "type": "function"
    },
    {
      "constant": true,
      "inputs": [],
      "name": "getDifficulty",
      "outputs": [
        {
          "name": "",
          "type": "uint256"
        }
      ],
      "payable": false,
      "stateMutability": "view",
      "type": "function"
    },
    {
      "constant": true,
      "inputs": [],
      "name": "getCurrentChallenge",
      "outputs": [
        {
          "name": "",
          "type": "bytes32"
        }
      ],
      "payable": false,
      "stateMutability": "view",
      "type": "function"
    },
    {
      "constant": true,
      "inputs": [],
      "name": "getCurrentNonce",
      "outputs": [
        {
          "name": "",
          "type": "string"
        }
      ],
      "payable": false,
      "stateMutability": "view",
      "type": "function"
    },
    {
      "constant": true,
      "inputs": [],
      "name": "getTimeOfLastProof",
      "outputs": [
        {
          "name": "",
          "type": "uint256"
        }
      ],
      "payable": false,
      "stateMutability": "view",
      "type": "function"
    },
    {
      "constant": true,
      "inputs": [],
      "name": "getMessage",
      "outputs": [
        {
          "name": "",
          "type": "string"
        }
      ],
      "payable": false,
      "stateMutability": "view",
      "type": "function"
    }
  ],
  "bytecode": "0x60806040526001600355606060405190810160405280603381526020017f6a73636861696e5f30783532343435383445463331613333383839303961423981526020017f6336663866383264354335633161393342315f00000000000000000000000000815250600490805190602001906200007d929190620000f6565b503480156200008b57600080fd5b50426002819055506000600102600081600019169055506040805190810160405280600581526020017f626567696e00000000000000000000000000000000000000000000000000000081525060019080519060200190620000ef929190620000f6565b50620001a5565b828054600181600116156101000203166002900490600052602060002090601f016020900481019282601f106200013957805160ff19168380011785556200016a565b828001600101855582156200016a579182015b82811115620001695782518255916020019190600101906200014c565b5b5090506200017991906200017d565b5090565b620001a291905b808211156200019e57600081600090555060010162000184565b5090565b90565b61106a80620001b56000396000f300608060405260043610610078576000357c0100000000000000000000000000000000000000000000000000000000900463ffffffff16806311c84d6a1461007d578063202eaa9c146101ef578063346d070d146102225780633a60c3861461024d578063b6baffe3146102dd578063ce6d41de14610308575b600080fd5b34801561008957600080fd5b506100f2600480360381019080803590602001908201803590602001908080601f01602080910402602001604051908101604052809392919081815260200183838082843782019150505050505091929192908035600019169060200190929190505050610398565b6040518085600019166000191681526020018060200180602001848152602001838103835286818151815260200191508051906020019080838360005b8381101561014a57808201518184015260208101905061012f565b50505050905090810190601f1680156101775780820380516001836020036101000a031916815260200191505b50838103825285818151815260200191508051906020019080838360005b838110156101b0578082015181840152602081019050610195565b50505050905090810190601f1680156101dd5780820380516001836020036101000a031916815260200191505b50965050505050505060405180910390f35b3480156101fb57600080fd5b50610204610b9f565b60405180826000191660001916815260200191505060405180910390f35b34801561022e57600080fd5b50610237610ba8565b6040518082815260200191505060405180910390f35b34801561025957600080fd5b50610262610bb2565b6040518080602001828103825283818151815260200191508051906020019080838360005b838110156102a2578082015181840152602081019050610287565b50505050905090810190601f1680156102cf5780820380516001836020036101000a031916815260200191505b509250505060405180910390f35b3480156102e957600080fd5b506102f2610c54565b6040518082815260200191505060405180910390f35b34801561031457600080fd5b5061031d610c5e565b6040518080602001828103825283818151815260200191508051906020019080838360005b8381101561035d578082015181840152602081019050610342565b50505050905090810190601f16801561038a5780820380516001836020036101000a031916815260200191505b509250505060405180910390f35b600060608060008060008060006064438115156103b157fe5b04935060648402935061045e8a60048054600181600116156101000203166002900480601f0160208091040260200160405190810160405280929190818152602001828054600181600116156101000203166002900480156104545780601f1061042957610100808354040283529160200191610454565b820191906000526020600020905b81548152906001019060200180831161043757829003601f168201915b5050505050610d00565b60059080519060200190610473929190610f7f565b5061052060058054600181600116156101000203166002900480601f01602080910402602001604051908101604052809291908181526020018280546001816001161561010002031660029004801561050d5780601f106104e25761010080835404028352916020019161050d565b820191906000526020600020905b8154815290600101906020018083116104f057829003601f168201915b505050505061051b86610d2d565b610d00565b60059080519060200190610535929190610f7f565b5061067460058054600181600116156101000203166002900480601f0160208091040260200160405190810160405280929190818152602001828054600181600116156101000203166002900480156105cf5780601f106105a4576101008083540402835291602001916105cf565b820191906000526020600020905b8154815290600101906020018083116105b257829003601f168201915b505050505060018054600181600116156101000203166002900480601f01602080910402602001604051908101604052809291908181526020018280546001816001161561010002031660029004801561066a5780601f1061063f5761010080835404028352916020019161066a565b820191906000526020600020905b81548152906001019060200180831161064d57829003601f168201915b5050505050610d00565b60059080519060200190610689929190610f7f565b50600560405180828054600181600116156101000203166002900480156106e75780601f106106c55761010080835404028352918201916106e7565b820191906000526020600020905b8154815290600101906020018083116106d3575b50509150506040518091039020925088600019168360001916141515610775576040517f08c379a000000000000000000000000000000000000000000000000000000000815260040180806020018281038252600f8152602001807f486173682069736e27742074727565000000000000000000000000000000000081525060200191505060405180910390fd5b60035460400360100a91508160017fffffffffffffffffffffffffffffffffffffffffffffffffffffffffffffffff01036001026000191689600019161015151561084e576040517f08c379a00000000000000000000000000000000000000000000000000000000081526004018080602001828103825260228152602001807f486173682069736e277420636f7272656374207769746820646966666963756c81526020017f747900000000000000000000000000000000000000000000000000000000000081525060400191505060405180910390fd5b60025442039050600581101515156108f4576040517f08c379a00000000000000000000000000000000000000000000000000000000081526004018080602001828103825260348152602001807fd0a26f7420656e6f7567682074696d652068617320706173736564206166746581526020017f72206c617374206f66666572206f66206861736800000000000000000000000081525060400191505060405180910390fd5b7f20b22ede82f8998e0fc4c805085d4c69d7393bab1e7dc184c4894a9f4e0ebc5a836005338d88604051808660001916600019168152602001806020018573ffffffffffffffffffffffffffffffffffffffff1673ffffffffffffffffffffffffffffffffffffffff168152602001806020018481526020018381038352878181546001816001161561010002031660029004815260200191508054600181600116156101000203166002900480156109ee5780601f106109c3576101008083540402835291602001916109ee565b820191906000526020600020905b8154815290600101906020018083116109d157829003601f168201915b5050838103825285818151815260200191508051906020019080838360005b83811015610a28578082015181840152602081019050610a0d565b50505050905090810190601f168015610a555780820380516001836020036101000a031916815260200191505b5097505050505050505060405180910390a1600081610258811515610a7657fe5b041115610aa05760406003541015610a9b576003600081548092919060010191905055505b610ac0565b60006003541115610abf57600360008154809291906001900391905055505b5b4260028190555082600081600019169055508960019080519060200190610ae8929190610f7f565b508260058b86828054600181600116156101000203166002900480601f016020809104026020016040519081016040528092919081815260200182805460018160011615610100020316600290048015610b835780601f10610b5857610100808354040283529160200191610b83565b820191906000526020600020905b815481529060010190602001808311610b6657829003601f168201915b5050505050925097509750975097505050505092959194509250565b60008054905090565b6000600254905090565b606060018054600181600116156101000203166002900480601f016020809104026020016040519081016040528092919081815260200182805460018160011615610100020316600290048015610c4a5780601f10610c1f57610100808354040283529160200191610c4a565b820191906000526020600020905b815481529060010190602001808311610c2d57829003601f168201915b5050505050905090565b6000600354905090565b606060048054600181600116156101000203166002900480601f016020809104026020016040519081016040528092919081815260200182805460018160011615610100020316600290048015610cf65780601f10610ccb57610100808354040283529160200191610cf6565b820191906000526020600020905b815481529060010190602001808311610cd957829003601f168201915b5050505050905090565b6060610d25610d0e83610e84565b610d1785610e84565b610eb290919063ffffffff16565b905092915050565b60606000806060600080861415610d7b576040805190810160405280600181526020017f30000000000000000000000000000000000000000000000000000000000000008152509450610e7b565b8593505b600084141515610da5578280600101935050600a84811515610d9d57fe5b049350610d7f565b826040519080825280601f01601f191660200182016040528015610dd85781602001602082028038833980820191505090505b5091506001830390505b600086141515610e7757600a86811515610df857fe5b066030017f010000000000000000000000000000000000000000000000000000000000000002828280600190039350815181101515610e3357fe5b9060200101907effffffffffffffffffffffffffffffffffffffffffffffffffffffffffffff1916908160001a905350600a86811515610e6f57fe5b049550610de2565b8194505b50505050919050565b610e8c610fff565b600060208301905060408051908101604052808451815260200182815250915050919050565b606080600083600001518560000151016040519080825280601f01601f191660200182016040528015610ef45781602001602082028038833980820191505090505b509150602082019050610f108186602001518760000151610f34565b610f298560000151820185602001518660000151610f34565b819250505092915050565b60005b602082101515610f5c5782518452602084019350602083019250602082039150610f37565b6001826020036101000a0390508019835116818551168181178652505050505050565b828054600181600116156101000203166002900490600052602060002090601f016020900481019282601f10610fc057805160ff1916838001178555610fee565b82800160010185558215610fee579182015b82811115610fed578251825591602001919060010190610fd2565b5b509050610ffb9190611019565b5090565b604080519081016040528060008152602001600081525090565b61103b91905b8082111561103757600081600090555060010161101f565b5090565b905600a165627a7a72305820a03a76d042944b571cfe17fd796342d2c8d5befc372bfcedd7c3bf2d47eaa9e70029",
  "source": "pragma solidity ^0.4.24;\n\nimport \"./strings.sol\";\n\ncontract TokenMining {\n    \n    using strings for *;\n    \n    bytes32 currentChallenge;                         // The coin starts with a challenge\n    string currentNonce;\n    uint timeOfLastProof;                             // Variable to keep track of when rewards were given\n    uint difficulty = 1;                         // Quantity of \"f\" at the beginning hash\n    uint constant lengthDiff = 2**256 - 1;\n    string message = \"jschain_0x5244584EF31a3388909aB9c6f8f82d5C5c1a93B1_\";\n    string str;\n    \n    event newHash(bytes32 _hash, string _str, address _sender, string _nonce, uint _idBlock);\n    \n    constructor() {\n        timeOfLastProof = now;\n        currentChallenge = 0x0;\n        currentNonce = \"begin\";\n    }\n    \n    function proofOfWork(string nonce, bytes32 _newHash) public returns(bytes32, string, string, uint) {\n        uint idBlock = block.number/100;\n        idBlock = idBlock * 100;\n        str = foo(nonce, message);\n        str = foo(str, uint2str(idBlock));\n        str = foo(str, currentNonce);\n        bytes32 hash = sha3(str);\n        require(hash == _newHash, \"Hash isn't true\");\n        uint currentDiff = 16**(64 - difficulty);\n        require(_newHash >= bytes32(lengthDiff + 1 - currentDiff), \"Hash isn't correct with difficulty\");\n        \n\n        uint timeSinceLastProof = (now - timeOfLastProof);  // Calculate time since last reward was given\n        require(timeSinceLastProof >=  5 seconds, \"Тot enough time has passed after last offer of hash\");         // Rewards cannot be given too quickly\n        \n        newHash(hash, str, msg.sender, nonce, idBlock);\n        \n        // send reward\n        // balanceOf[msg.sender] += timeSinceLastProof / 60 seconds;  // The reward to the winner grows by the minute\n        \n        if(10 minutes / timeSinceLastProof > 0)\n        {\n            if (difficulty < 64)\n            difficulty++;\n        }\n        else\n        {\n            if (difficulty > 0)\n            {\n                difficulty--;\n            }\n        }\n\n        timeOfLastProof = now;                              // Reset the counter\n        currentChallenge = hash;  // Save a hash that will be used as the next proof\n        currentNonce = nonce;\n        return (hash, str, nonce, idBlock);\n    }\n    \n    function getDifficulty() public view returns(uint) {\n        return difficulty;\n    }\n    \n    function getCurrentChallenge() public view returns(bytes32) {\n        return currentChallenge;\n    }\n    \n    function getCurrentNonce() public view returns(string) {\n        return currentNonce;\n    }\n    \n    function getTimeOfLastProof() public view returns(uint) {\n        return timeOfLastProof;\n    }\n    \n    function getMessage() public view returns(string) {\n        return message;\n    }\n    \n    // function test() public view returns(string, bytes32, string, bytes32) {\n    //     //str = foo(address2String(msg.sender), uint2str(block.number));\n    //     //str = foo(str,  message);\n    //   // return (str, sha3(str));\n    //     //str = foo(uint2str(block.number), message);\n    //     str = address2String(address(0xafcbdf9e8a50f15f7b2485bf735ea0931c398b2d));\n    //     return (str, sha3(str), str2, sha3(str2));\n    // }\n    \n    // function bytes32ToStr(bytes32 _bytes32) internal pure returns (string){\n    // bytes memory bytesArray = new bytes(32);\n    // for (uint256 i = 0; i < 32; i++) {\n    //     bytesArray[i] = _bytes32[i];\n    //     }\n    // return string(bytesArray);\n    // }\n    \n    // function address2String(address x) internal pure returns (string) {\n    //     bytes memory b = new bytes(20);\n    //     for (uint i = 0; i < 20; i++)\n    //         b[i] = byte(uint8(uint(x) / (2**(8*(19 - i)))));\n    //     return string(b);\n    // }\n    \n    // function address2Bytes(address x) internal pure returns (bytes b) {\n    // b = new bytes(20);\n    // for (uint i = 0; i < 20; i++)\n    //     b[i] = byte(uint8(uint(x) / (2**(8*(19 - i)))));\n    // }\n\n    function uint2str(uint i) internal pure returns (string){\n    if (i == 0) return \"0\";\n    uint j = i;\n    uint length;\n    while (j != 0){\n        length++;\n        j /= 10;\n    }\n    bytes memory bstr = new bytes(length);\n    uint k = length - 1;\n    while (i != 0){\n        bstr[k--] = byte(48 + i % 10);\n        i /= 10;\n    }\n    return string(bstr);\n\n    }\n    \n     function foo(string s1, string s2) internal pure returns(string s) {\n    s = s1.toSlice().concat(s2.toSlice());\n  }\n}",
  "sourcePath": "/home/kendari/jobs/Slava/TokenMining/contracts/TokenMining.sol",
  "compiler": {
    "name": "solc",
    "version": "0.4.24+commit.e67f0147.Emscripten.clang"
  },
  "schemaVersion": "2.0.1",
  "updatedAt": "2018-10-01T21:42:50.002Z"
}